:020000040800F2
:1000000058070020890100089101000893010008A9
:100010009501000897010008990100080000000000
:100020000000000000000000000000009B0100082C
:100030009D010008000000009F0100081911000840
:10004000A3010008A3010008A3010008A301000800
:10005000A3010008A3010008A3010008A3010008F0
:10006000A3010008A3010008A3010008A3010008E0
:10007000A3010008A3010008A3010008A3010008D0
:10008000A3010008A3010008A3010008A3010008C0
:10009000A3010008A3010008A3010008A3010008B0
:1000A000A3010008A3010008A3010008A3010008A0
:1000B000A3010008A3010008A3010008A301000890
:1000C000A3010008A3010008A3010008A301000880
:1000D000A3010008A301000869150008A301000896
:1000E000A3010008A3010008A301000800F002F822
:1000F00000F03AF80AA090E8000C82448344AAF188
:100100000107DA4501D100F02FF8AFF2090EBAE885
:100110000F0013F0010F18BFFB1A43F0010318473B
:10012000982A0000B82A0000103A24BF78C878C185
:10013000FAD8520724BF30C830C144BF04680C60ED
:10014000704700000023002400250026103A28BF35
:1001500078C1FBD8520728BF30C148BF0B60704739
:100160001FB51FBD10B510BD00F044F81146FFF7D4
:10017000F7FF01F0EFFC00F062F803B4FFF7F2FFC5
:1001800003BC00F065F800000948804709480047B3
:10019000FEE7FEE7FEE7FEE7FEE7FEE7FEE7FEE737
:1001A000FEE7FEE704480549054A064B7047000094
:1001B000CD110008ED00000858010020580700206C
:1001C000580300205803002070477047704710B54F
:1001D00000F008F8006810BD10B5044600F002F801
:1001E000046010BD00487047F800002000487047C8
:1001F000F80000207546FFF7F9FFAE460500694696
:10020000534620F00700854618B020B5FFF7CAFF17
:10021000BDE820404FF000064FF000074FF0000807
:100220004FF0000B21F00701AC46ACE8C009ACE888
:10023000C009ACE8C009ACE8C0098D46704710B5EC
:100240000446AFF300802046BDE81040FFF795BF9D
:1002500001491820ABBEFEE726000200704710B52A
:100260004FF4803000F098FE4FF4E0114FF48030EE
:1002700000F0C4FE022000F0CFFE4FF4806000F0DA
:10028000B1FE10BD70B500F04FFF144800684FF488
:100290007A72B0FBF2F1481EB0F1807F00D31BE010
:1002A000481E4FF0E022506150170F22002804DB57
:1002B00013071C0E0A4B1C5406E013071D0E094BB6
:1002C00000F00F04241F1D5500BF00204FF0E02256
:1002D00090610720106100BF70BD0000BC000020CD
:1002E00000E400E018ED00E02DE9F04102460025B1
:1002F0000026002000230024002791F803C00CF002
:100300000F0591F803C00CF0100CBCF1000F03D0E6
:1003100091F802C04CEA050591F800C0BCF1000F4D
:1003200031D0146800202BE04FF0010C0CFA00F3E0
:10033000B1F800C00CEA03069E4220D183004FF0C2
:100340000F0C0CFA03F7BC4305FA03FC4CEA040457
:1003500091F803C0BCF1280F06D14FF0010C0CFA44
:1003600000FCC2F814C00AE091F803C0BCF1480FC9
:1003700005D14FF0010C0CFA00FCC2F810C0401C73
:100380000828D1D31460B1F800C0BCF1FF0F34DDF0
:10039000546800202EE000F1080C4FF0010808FA24
:1003A0000CF3B1F800C00CEA03069E4221D1830091
:1003B0004FF00F0C0CFA03F7BC4305FA03FC4CEAB0
:1003C000040491F803C0BCF1280F05D100F1080C1A
:1003D00008FA0CF8C2F8148091F803C0BCF1480F79
:1003E00007D100F1080C4FF0010808FA0CF8C2F828
:1003F0001080401C0828CED35460BDE8F08121B1A4
:10040000028842F48062028004E002884FF6FF33E3
:100410001A400280704770B5024600240025002370
:100420000020958A138B1B0445EA030626F07F44BF
:1004300004EA01068E4201D1012000E0002070BDD7
:1004400021B1028842F00102028004E002884FF6E6
:10045000FE731A400280704700B585B001218805FF
:1004600000F000FD0121092000F01CFD4FF4406068
:10047000ADF8000003208DF802001C208DF8030069
:1004800069461348FFF730FF124800F027F80020B4
:10049000ADF808004BF6FF70ADF80A00D020ADF8BB
:1004A0000C004FF48060ADF80E000001ADF81000B4
:1004B0000948019001210748FFF7C2FF01A905483B
:1004C00000F05EF801210348FFF799FF05B000BD79
:1004D000000C014000580040801A060010B5044688
:1004E0000B48844209D10121480500F0CBFC0021D2
:1004F0004FF4001000F0C6FC08E00121880500F070
:10050000C1FC00214FF4800000F0BCFC10BD0000D5
:100510000054004021B1028842F48072028004E05D
:1005200002884FF6FF631A400280704721B10288AB
:1005300042F40072028004E002884FF6FF531A4032
:10054000028070470CB502460020002301930093FF
:1005500000920B0F019321F07F41019B1BB1009B87
:100560001433009303E0090C009B18330093009BA5
:100570001B680B400BB1012000E000200CBD000007
:100580002DE9F04385B004460D460026B146042708
:10059000DFF8CC80A6884FF6C0700640684600F0B1
:1005A00091FCDDF808802F48B8FBF0F01FFA80F9C5
:1005B00046EA0906A68020884FF6FE710840208092
:1005C00000262949286888420CD828684000B8FBD2
:1005D000F0F087B2042F00DA04273E4309F101004E
:1005E000208427E0E8884BF6FF71884206D128680E
:1005F00000EB4000B8FBF0F087B209E0286800EBA0
:10060000C00101EB0010B8FBF0F087B247F480475F
:10061000C7F30B0008B947F0010747F40040064351
:100620004FF4967009FB00F04FF47A7190FBF1F0F3
:10063000401C2084A683208840F00100208026886A
:100640004FF6F5300640A88869890843064326809E
:10065000A88929890843208105B0BDE8F0830000FE
:1006600000127A0040420F00A086010012B141F052
:10067000010102E04FF6FE7319400182704700004D
:100680002DE9F04F89B082464E49B1F9041001FBC3
:1006900001F002F079F84B490190B1F9001001FB2B
:1006A00001F002F071F80090019901F0DFFF83463C
:1006B00001F0B0FFCDE9020101F072FACDE90601C7
:1006C0004049B1F9020002F05FF8834601F0A2FF51
:1006D000CDE90401DDE9062301F06AFB804601F063
:1006E00017F90646384A394B01F0BAFC044601F0C6
:1006F0007DFACAF800003349B1F9041001FB01F09A
:1007000002F042F82F490190B1F9021001FB01F00B
:1007100002F03AF80090019901F0A8FF834601F039
:1007200079FFCDE9020101F03BFACDE90401254949
:10073000B1F90010484202F027F8834601F06AFF41
:100740000646DDE9042301F033FB804601F0E0F8C2
:1007500004461D4A1D4B01F083FCCDE9060101F062
:1007600045FACAF804001A480068002827DA002170
:100770001848006802F034F806D2DAF8000080F079
:100780000040CAF8000006E01348DAF8001002F052
:10079000D7F8CAF8000000211048006802F020F8DD
:1007A00006D2DAF8040080F00040CAF8040006E03F
:1007B0000948DAF8041002F0C3F8CAF8040009B0D6
:1007C000BDE8F08F7A000020F8C1631ADCA54C4028
:1007D0009400002068000020000034436C000020DA
:1007E0001FB50E2269463B2000F068F800240CE09B
:1007F0006000401C1DF800001DF8141000EB0120E3
:1008000000B20C4921F81400641C032CF0DB042412
:100810000DE06000401C1DF800001DF8141000EBF6
:10082000012001B2201F044A22F81010641C072C7A
:10083000EFDB1FBD7A0000207400002010B580207F
:100840001D4908706B211C4800F0A8F8052001F034
:100850006FF90020184908706B21174800F09EF8C6
:10086000052001F065F90720134908701921124885
:1008700000F094F8052001F05BF906200E4908709D
:100880001A210D4800F08AF8052001F051F90020E6
:10089000094908701B21084800F080F8052001F084
:1008A00047F90020044908701C21034800F076F83D
:1008B000052001F03DF910BDA400002070B50646EA
:1008C0000D46144600BF4FF400313148FFF73AFEA1
:1008D0000028F8D101212E48FFF71CFE00BF2D494A
:1008E0002B48FFF798FD0028F9D00022D021284896
:1008F000FFF7BCFE00BF28492548FFF78CFD002804
:10090000F9D001212248FFF79BFD214810300680D5
:1009100000BF2149891C1E48FFF77DFD0028F8D043
:1009200001211B48FFF7F6FD00BF1A491848FFF7E1
:1009300072FD0028F9D00122D0211548FFF796FE5C
:1009400000BF1449491C1248FFF765FD0028F8D084
:1009500016E0012C07D100210D48FFF750FD0121C1
:100960000B48FFF7E3FD0B493F310948FFF753FD03
:1009700030B107481030008828706D1C601EC4B26A
:10098000002CE6D101210248FFF739FD70BD0000BF
:1009900000580040010003008200070070B50446C3
:1009A0000D4601211848FFF7B5FD00BF174916484D
:1009B000FFF731FD0028F9D00022D0211248FFF7BF
:1009C00055FE00BF12491048FFF725FD0028F9D059
:1009D0000D481030058000BF0D49891C0A48FFF7FB
:1009E0001AFD0028F8D0207807491031088000BF90
:1009F0000749891C0448FFF70EFD0028F8D00121A3
:100A00000148FFF793FD70BD00580040010003004E
:100A10008200070070B5002100230F22C47804B3C0
:100A2000154C246804F4E064C4F5E064210AC1F1C3
:100A30000403CA40447804FA03F184781440214343
:100A400009010E4C0678A155047804F01F05012415
:100A5000AC4005786D11AD0005F1E025C5F8004109
:100A600009E0047804F01F050124AC40044D067829
:100A7000761145F8264070BD0CED00E000E400E082
:100A800080E100E002490143024A11607047000022
:100A90000000FA050CED00E010B54FF4FA611748BC
:100AA00000F006FD4FF4FA61144800F003FD4FF426
:100AB000FA61124800F000FD4FF4FA610F4800F0AF
:100AC000FDFC41F2883001F033F84FF47A710B48A5
:100AD00000F0EEFC4FF47A71084800F0EBFC4FF4A4
:100AE0007A71064800F0E8FC4FF47A71034800F090
:100AF000E5FC4FF47A7001F01BF810BD00080040CF
:100B000000B589B00121042000F0ACF94720ADF810
:100B1000180044F62060ADF81C000020ADF81E005F
:100B2000ADF81A0006A91D4800F0CCFC01211B48B5
:100B300000F07CFB6020ADF808000120ADF80A0051
:100B40000020ADF81000ADF80E0002A9134800F027
:100B500079FB02A9114800F0CBFB02A90F4800F075
:100B600019FC02A90D4800F065FC08210B4800F0B3
:100B7000B5FB0121082000F095F94FF47070ADF835
:100B8000040018208DF8070002208DF8060001A946
:100B90000348FFF7A9FB09B000BD000000080040B2
:100BA000000C0140574A1278002A12D090B94A42EC
:100BB00002EB82024FF6FF7303EA8202524B1A8065
:100BC000524B1A8001EB81029200514B1A80514B1B
:100BD0001A8095E0012813D101EB810292004C4B61
:100BE0001A804A4202EB82024FF6FF7303EA820246
:100BF000464B1A800022444B1A80464B1A807FE0F5
:100C0000022812D101EB810292003F4B1A80404B27
:100C10001A804A4202EB82024FF6FF7303EA820215
:100C20003C4B1A80394B1A806AE0032813D101EB40
:100C300081029200344B1A804A4202EB82024FF644
:100C4000FF7303EA8202334B1A800022304B1A8072
:100C50002E4B1A8054E0042812D101EB810292003D
:100C6000294B1A80294B1A804A4202EB82024FF626
:100C7000FF7303EA8202264B1A80264B1A803FE05C
:100C8000052813D101EB81029200204B1A804A42C1
:100C900002EB82024FF6FF7303EA82021C4B1A80BA
:100CA0000022194B1A801B4B1A8029E0062812D10A
:100CB0004A4202EB82024FF6FF7303EA8202124BB2
:100CC0001A80134B1A8001EB81029200114B1A809B
:100CD0000E4B1A8014E0072812D101EB810292001A
:100CE0000C4B1A804A4202EB82024FF6FF7303EA72
:100CF0008202054B1A800022054B1A80034B1A8092
:100D0000704700003C0000204C00002046000020FE
:100D10004A0000204800002010B50446032C0FD1E3
:100D20001748007818B917481749086002E01748B3
:100D30001549086012480078C043114908701EE048
:100D4000012C0DD111491048006801F0C8FD07D2EF
:100D50000F490D48006801F0F3FD0B4908600EE0F3
:100D6000022C0CD10B490848006801F039FD06D26D
:100D700007490548006801F079FC0349086010BD87
:100D80003C00002000C0A8442400002000007A4459
:100D9000000070410000FA4470B52848008801F056
:100DA0000BFD054626480168284601F05FFC044615
:100DB00001F0CAFC234908802348008801F0FCFCAC
:100DC00005461F480168284601F050FC044601F022
:100DD000BBFC1E4908801E48008801F0EDFC05465A
:100DE00017480168284601F041FC044601F0ACFCBC
:100DF000184908801848008801F0DEFC05461048B4
:100E00000168284601F032FC044601F09DFC1349BC
:100E100008800C480188124800F04AFB0B48018802
:100E20000F4800F047FB0B4801880D4800F044FBD9
:100E30000A4801880A4800F041FB70BD46000020C6
:100E4000240000203E000020480000204000002038
:100E50004A000020420000204C00002044000020F6
:100E60000008004029B1064AD2690243044BDA6106
:100E700004E0034AD2698243014BDA617047000003
:100E80000010024029B1064A12690243044B1A615C
:100E900004E0034A12698243014B1A617047000063
:100EA0000010024029B1064A92690243044B9A613C
:100EB00004E0034A92698243014B9A617047000043
:100EC0000010024030B500210022002400232D4DE7
:100ED0006D6805F00C0121B1042905D0082923D142
:100EE00005E0294D056022E0274D05601FE0254DF6
:100EF0006D6805F47012234D6D6805F48034022589
:100F000005EB92421CB9214D554305600BE01D4D88
:100F10006D6805F400351DB11C4D5543056002E0B8
:100F2000194D5543056002E0174D056000BF00BF35
:100F3000144D6D6805F0F0010909154D6B5C0568ED
:100F4000DD4045600F4D6D6805F4E061090A104D04
:100F50006B5C4568DD4085600A4D6D6805F4605145
:100F6000C90A0B4D6B5C4568DD40C560054D6D6879
:100F700005F44041890B074D6B5CC568B5FBF3F583
:100F8000056130BD0010024000127A0000093D00EA
:100F9000A5000020B50000201149096821F4803126
:100FA0000F4A11601146096821F480211160B0F5E3
:100FB000803F03D0B0F5802F0ED106E008490968C4
:100FC00041F48031064A116007E00549096841F49F
:100FD000A021034A116000E000BF00BF704700007D
:100FE0000010024001460020034A506820F4E060EF
:100FF0000843506070470000001002400246002085
:10100000044B586820F47C1042EA01031843014B5A
:10101000586070470010024001460020034A5068A3
:1010200020F00300084350607047000000100240A9
:1010300010B500F001F810BD0CB500200190009033
:101040003348006840F480303149086000BF3048C0
:10105000006800F4003000900198401C0190009856
:1010600018B90198B0F5A06FF1D12948006800F4D3
:10107000003010B10120009001E0002000900098A5
:10108000012843D12348006840F01000214908603E
:101090000846006820F0030008600846006840F039
:1010A000020008601A4840681949486008464068CC
:1010B00048600846406840F48060486008464068E0
:1010C00020F47C1048600846406840F4E81048600E
:1010D0000846006840F08070086000BF0C48006857
:1010E00000F000700028F9D00948406820F00300A3
:1010F000074948600846406840F00200486000BF69
:101100000348406800F00C000828F9D10CBD00002D
:10111000001002400020024002480068401C0149C3
:10112000086070475000002010B500210020002208
:10113000214B5B6803F00C0121B1042906D008297A
:1011400028D107E01D4B1E4C236027E01B4B1C4C95
:10115000236023E0184B5B6803F47010164B5B6848
:1011600003F48032022303EB904022B9154B434332
:10117000134C23600DE0104B5B6803F4003323B184
:10118000104B43430E4C236003E00C4B43430C4C89
:10119000236003E0094B0A4C236000BF00BF064BED
:1011A0005B68C3F30313084CE15C054B1B68CB4041
:1011B000034C236010BD00000010024000127A00B2
:1011C000BC00002000093D00C000002010B51348FD
:1011D000006840F001001149086008464068104965
:1011E00008400E494860084600680E4908400B490F
:1011F00008600846006820F48020086008464068BF
:1012000020F4FE0048604FF41F008860FFF710FFD5
:101210004FF000600449086010BD0000001002405B
:101220000000FFF8FFFFF6FE08ED00E021B10288A4
:1012300042F00102028004E002884FF6FE731A4079
:101240000280704770B5002400220023058C4FF601
:10125000FE7635400584028C8388048B4FF68F75AB
:101260002C40B51E2C400D882C43751E2A400D893C
:101270002A434D882A43144DA8420BD0134DA8424F
:1012800008D0134DA84205D0124DA84202D0124DED
:10129000A84213D14FF6F7752A404D892A434FF6DD
:1012A000FB752A408D882A434FF6FF652B404FF689
:1012B000FF552B408D892B43CD892B43838004839D
:1012C000CD888586028470BD002C01400034014029
:1012D0000040014000440140004801400A4600210E
:1012E000018B4FF6F77319401143018370470000DB
:1012F00070B5002400220023058C4FF6EF763540B0
:101300000584028C8388048B48F6FF752C404FF6C9
:10131000FF452C400D884FF6FF7606EA05252C4345
:101320004FF6DF752A400D8906EA05152A434D88D8
:1013300006EA05152A43154DA84202D0144DA842CD
:101340001DD14FF67F752A404D894FF6FF7606EA8C
:1013500005152A434FF6BF752A408D8806EA051504
:101360002A434FF6FF352B404FF2FF752B408D89F6
:1013700006EA85052B43CD8906EA85052B43838044
:101380000483CD880587028470BD0000002C0140D5
:101390000034014070B5002400220023058C4FF674
:1013A000FF6635400584028C8388848B4FF68F75E9
:1013B0002C404FF6FC752C400D882C434FF6FF5502
:1013C0002A400D894FF6FF7606EA05252A434D8807
:1013D00006EA05252A43154DA84202D0144DA8421D
:1013E0001DD14FF2FF752A404D894FF6FF7606EA70
:1013F00005252A434FF6FF352A408D8806EA052544
:101400002A434EF6FF752B404DF6FF752B408D8914
:1014100006EA05152B43CD8906EA05152B43838083
:101420008483CD888587028470BD0000002C014034
:101430000034014070B5002200230024058C4EF6D4
:10144000FF7635400584038C8488828B48F6FF75CF
:101450002A404FF6FF452A400D884FF6FF7606EAF0
:1014600005252A434DF6FF752B400D8906EA053503
:101470002B434D8806EA05352B430B4DA84202D07D
:101480000A4DA84208D14BF6FF752C408D894FF6C6
:10149000FF7606EA85152C4384808283CD88A0F8E8
:1014A0004050038470BD0000002C01400034014016
:1014B000818670470187704781877047A0F8401088
:1014C00070470000002202881D4B98420ED01D4B31
:1014D00098420BD0B0F1804F08D01B4B984205D0FA
:1014E0001A4B984202D01A4B984204D14FF68F7390
:1014F0001A404B881A43174B984207D0164B984214
:1015000004D04FF6FF431A40CB881A4302808B88E1
:1015100083850B8803850A4B98420BD0094B984270
:1015200008D00E4B984205D00D4B984202D00D4B7F
:10153000984201D10B7A0386012383827047000011
:10154000002C01400034014000040040000800402D
:10155000000C00400010004000140040004001401A
:10156000004401400048014010B540F225510E48AA
:1015700000F098F8B8B10C4800F050F9C4B204F08B
:1015800007000A490870C4F3C2004870A0098870B7
:101590008878FFF7C1FB054A51781078FFF702FB06
:1015A000FFF7FAFB00BF10BD004400401C00002004
:1015B00010B586B001214804FFF754FC4FF41650D3
:1015C00002900020ADF814000C20ADF812000020AD
:1015D000ADF81000ADF80E00ADF80C0002A92748D8
:1015E00000F0B0F80121254800F050F80121042056
:1015F000FFF758FC0420ADF8040018208DF8070010
:1016000002208DF8060001A91D48FEF76DFE082096
:10161000ADF8040004208DF8070002208DF80600C4
:1016200001A91748FEF760FE012240F22551134838
:1016300000F062F84FF44070FFF724FA4FF0FF30EB
:101640000021002804DB0A07130E0E4A135406E09B
:101650000A07140E0C4A00F00F031B1FD45400BFDE
:1016600026208DF8000001208DF801008DF8030080
:101670006846FFF7CFF906B010BD000000440040F7
:101680000008014000E400E018ED00E021B182898B
:1016900042F40052828104E082894DF6FF731A40C1
:1016A0008281704770B50246002400230025002087
:1016B00040F66A16B14200D100BFC1F3421501F0F5
:1016C0001F03012606FA03F3012D02D19689334048
:1016D00006E0022D02D1168A334001E0968A33409B
:1016E0000C12012606FA04F41688344013B10CB12A
:1016F000012000E0002070BDF0B503460024002664
:101700000025002040F66A17B94200D100BF1846F4
:10171000C1F3421401F01F06012707FA06F5012C58
:1017200001D10C3004E0022C01D1103000E0143063
:101730001AB107682F43076002E00768AF430760EC
:10174000F0BD00002DE9F04786B005460E460024A6
:10175000A24600BFA1460027B08900B100BF2F46B6
:101760002C8A4CF6FF700440F08804432C82AC892C
:101770004EF6F3100440B08831890843718908435C
:101780000443AC81AC8A4FF6FF400440B089044367
:10179000AC8201A8FFF796FB1F48874202D1DDF813
:1017A00010A001E0DDF80CA0A88900F4004040B1D1
:1017B0000AEBCA0000EB0A1031684900B0FBF1F8EF
:1017C00007E00AEBCA0000EB0A1031688900B0FBA1
:1017D000F1F86420B8FBF0F004012009642101FB5A
:1017E0001089A88900F4004040B1322000EBC90004
:1017F000B0FBF1F000F00700044308E0322000EBFA
:1018000009106421B0FBF1F000F00F0004432C81BB
:1018100006B0BDE8F0870000003801400146888826
:10182000C0F308007047490050EAC12018BF0420E7
:101830004A0D18BF40F0010040F2FF72B2EB515F59
:1018400008BF40F00200012808BF052070472DE9BD
:10185000F0414F1E00EBC7010446D1E900011546D7
:101860001E4637F006020DD02A46334600F0F8FB3C
:101870007F1E04EBC703D3E9002300F0E9F937F03A
:101880000602F1D1022F25D0042F13D0062F18BF46
:10189000BDE8F0812A46334600F0E2FBD4E90A2392
:1018A00000F0D6F92A46334600F0DAFBD4E90823E3
:1018B00000F0CEF92A46334600F0D2FBD4E90623E5
:1018C00000F0C6F92A46334600F0CAFBD4E90423E7
:1018D00000F0BEF92A46334600F0C2FBD4E90223E9
:1018E00000F0B6F92A46334600F0BAFBD4E90023EB
:1018F000BDE8F04100F0ACB9012201F0C8B8000029
:10190000024A0020110701F0C2B8000001FDFFFFEC
:101910002DE9F84F04460D4621F00040009173492F
:10192000814211DC7249884201DC06D12CB120468B
:101930002946BDE8F84FFFF7DFBF6E48002DCCBF4A
:101940006D496E49BDE8F88F6D49814211DD6D49E1
:101950008142D8BF4FF0FF366DDD20462946FFF7A4
:1019600062FF042808BFFFF7CBFF20462946BDE8E9
:10197000F88F6549654F25F00045814233DD6449A4
:10198000814219DD002632464FF080432046294629
:1019900000F05EF980468A4601222046294601F081
:1019A00076F800223B4600F04BFD4246534600F0DD
:1019B000FFF904460D463EE001260022BA463B46AA
:1019C0002046294600F044F980460F46002253463F
:1019D0002046294600F034FD42463B4600F0E8F937
:1019E00004460D4627E04B4981421BDDDFF828A164
:1019F0000226002253462046294600F031FB0022F1
:101A00003B4600F025F980460F460022534620460B
:101A1000294600F015FD42463B4600F0C9F9044650
:101A20000D4608E0032622462B4600203B4900F0E5
:101A3000BFF904460D4622462B461046194600F0D3
:101A40000FFB8B46824602460B4600F009FB074619
:101A50000246334888460B4606217844FFF7F7FED6
:101A600052465B4600F0FCFA82462E488B463A46C8
:101A7000434605217844FFF7EAFE3A46434600F024
:101A8000EFFA02460B46002E504659460CDA00F09B
:101A9000DFF822462B4600F0E3FA01B022462B463F
:101AA000BDE8F04F00F0DABB00F0D2F822462B463A
:101AB00000F0D6FA1C4A7A4402EBC603D3E90023AD
:101AC00000F0BEFC22462B4600F0BAFC174A7A44CE
:101AD00002EBC603D3E9002300F0C0FB009A002A02
:101AE000B8BF81F00041BDE8F88F0000000010444D
:101AF0000000F07F182D4454FB21F93FFB21F9BF72
:101B00000000DC3F0000203E0000F33F0000F03FFB
:101B10000000E63F008003400000F83F0000F0BFF7
:101B20002A110000E8100000861000004E1000008E
:101B3000064909680144064A116000BF0349096863
:101B4000034A12689142F9D3704700005000002008
:101B500054000020FEF783FBFEF794FBFFF728FDFF
:101B6000FEF7CEFFFEF798FFFEF776FCFEF766FE67
:101B70000AE000F00FF805490860FEF731FE04485E
:101B8000FEF77EFDFFF708F9F3E7000020000020D4
:101B9000E00000200148006870470000500000206D
:101BA0002DE9F04106460F4600F064FB041E0D4689
:101BB00018BF0120284320F00040C0F17F6000F1F1
:101BC000E040C00F0ED0301C18BF0120384320F079
:101BD0000040C0F17F6000F1E040C00F04BF012071
:101BE000FEF7FAFA20462946BDE8F08121F00042CE
:101BF000A2F16052B2F5801F01F0004328BFD2F17C
:101C00007F6C0BD95FEA001C43EAC20242EB5070C2
:101C100018BF704728BF20F001007047B2F5801F41
:101C2000BCBF184670474FEA410C1CF5001F02D29A
:101C3000084600F04FBE70B500F0BCFA0000008905
:101C4000FFF7F6BF4FF00040A0F58000704700009E
:101C500010B591EA030F48BF83F0004300F1F88309
:101C6000841A71EB030C05D2121943EB0C03001B11
:101C700061EB0C01DFF824E14FEA1154A4EB135C93
:101C80001EEA430F18BF9EEA445F73D023EA0E0397
:101C9000DCF1200E21EA045143F4801332D322FAFE
:101CA0000CFE10EB0E0023FA0CFE41EB0E01CCF102
:101CB000200E03FA0EFE10EB0E0051F10001B1F5FB
:101CC000801FCCF1200E32D201EB045112FA0EF239
:101CD000BDE8104058BF7047401C38BF5FEA420261
:101CE00018BF7047002814BF20F0010041F1000127
:101CF0004FEA410313F5001F38BF7047A1F1C041FF
:101D000000F0A6BA012A43EB0302ACF1200CDCF18F
:101D10001F0E32BF4FF0000E23FA0CF310EB03003E
:101D200041EB0451B4EB115FD0D0A1EB045101F5AC
:101D3000801149085FEA300001EB04510ED350F1E5
:101D4000000038BF12FA0EFE08D1BDE81040C9E706
:101D5000401C38BF5FEA4202CAD1C3E7BDE8104069
:101D60004FEA410313F5001F38BF7047A1F1C0418E
:101D700000F06EBA9EEA445F08D011EA5E0FBDE83B
:101D8000104004BF01F0004100207047BDE8104042
:101D900070B500F00FFA00BF64FBBE3E0000E0FF2C
:101DA00002494FF0000000F040BE00BF0000F87F85
:101DB0002DE9C04130B4DFF8A0C23CEA111418BFCD
:101DC0003CEA131400F0EC8081EA03051CEA1114CC
:101DD00044EAD57418BF1CEA131500F0C780A4EBC1
:101DE00005044FF0004545EAC12145EAC32341EA15
:101DF000505143EA525304F17F74994204F5003480
:101E00004FEAC0204FEAC22208BF904200F09C80F7
:101E10004FEA13650FF24016765D4FEA134506FB55
:101E200005F7C7F1807706FB07F74FEAD737A7FB1F
:101E300003687642C8F58038A7FB06CE38BFA8F104
:101E4000010807FB08E64FF0000EA6FB028CE6FB3C
:101E500003CEDCF1000CCEF1004E38BFAEF1010E26
:101E6000A6FB0C584FF000074FF00005E6FB0E876D
:101E7000A1FB08C6A0FB07CE16EB0E0645F1000538
:101E8000E1FB076515F1E04E7EBFA4F580345FEA03
:101E900046066D4116F1800745F100054FEA172708
:101EA0004FEA066647EA0567A6F1DE46B6F1805FAF
:101EB0004FEA15251FD9384624F0010C05EBC471F3
:101EC000BCF1FE6F01EB0C1102D8F0BCBDE8008143
:101ED00024425CBF01F5801E9EEAC47F02D4F0BCA0
:101EE000BDE80081244238D4F0BCA1F1C041BDE876
:101EF000004100F0ADB94FEAD22242EA43524FEA24
:101F0000D323A7FB02864FEAD02040EA415007FBCB
:101F100003661EEA0E0F4FEAD12105FB026658BF89
:101F2000A6EB0056B6EB00564FEA520E4EEAC37EC1
:101F300018EB0E0E56EB530EBDD518EB02085E41A2
:101F40007F1C55F10005B6E74FF480154FF00007F0
:101F50004FF000064FF00008ADE7F0BC4FF0000076
:101F600001F1C04101F00041BDE8008111EA0C1F00
:101F70000CEA131500D00CE013EA0C1F00F02580CA
:101F80004FF00000F0BC81EA030101F00041BDE820
:101F90000081F0BCBDE8004181EA030100F058B9BE
:101FA000F0BCBDE8004170B500F004F9097EFC3ECC
:101FB00000F007B881EA03014FF0000001F0004192
:101FC000704781EA030100F043B9F0BCBDE800416D
:101FD0004FF0000021497047FFFDFBF9F7F5F4F2DF
:101FE000F0EEEDEBE9E8E6E4E3E1E0DEDDDBDAD8B4
:101FF000D7D5D4D3D1D0CFCDCCCBCAC8C7C6C5C412
:10200000C2C1C0BFBEBDBCBBBAB9B8B7B6B5B4B328
:10201000B2B1B0AFAEADACABAAA9A8A8A7A6A5A413
:10202000A3A3A2A1A09F9F9E9D9C9C9B9A999998D7
:102030009797969595949393929191908F8F8E8E7A
:102040008D8C8C8B8B8A8989888887878685858407
:1020500084838382828181800000FF070000F87FF3
:10206000DFF848C170B51CEA111E1EBF1CEA13152B
:102070009EEA0C0F95EA0C0F00F06F8081EA0304D2
:1020800023EA4C134EEAD47E21EA4C1141F480112C
:1020900043F48013AE44A1FB024CA0FB0365AEF1F8
:1020A0007F7E361955EB0C05A1FB034C4CF1000368
:1020B000A0FB021C16EB0C06654153F1000309421C
:1020C00018BF46F0010613F4007F0BD14FEA03312D
:1020D0004FEA0530340341EA155140EA16506FF0DB
:1020E00003020AE04FEAC3214FEAC520F40241EAA5
:1020F000555140EA56506FF0020202EB2E4201EBBE
:10210000025585EACE710AD05FEA440C18BF24F06C
:10211000004450F1000041F1000120EAD47040F287
:10212000FE7C624500D270BDA84214BF4FF08044CF
:102130004FF04044002E08BF0024BEF1806FA8BFBE
:10214000A1F1C041BDE8704080F282804FF00000F4
:1021500001F1C04101F0004170479EEA0C0F0CEA0A
:10216000131518BF95EA0C0F06D04FF0000081EA56
:10217000030E0EF0004170BD00F01CF88900013E16
:1021800000F007B800F009B84FEA430C5FEA5C5C66
:1021900008D081EA030100F05BB84FEA410C5FEA26
:1021A0005C5CF6D14FF00000014970470000FF076A
:1021B0000000F87F0EF1020E2EF0030E5EF8046BA5
:1021C000364205D4012A43EB030515F5001F12D84A
:1021D000012841EB010C1CF5001F0CD80ED14FEA71
:1021E000D17C15F5001F0CEB4C0C0CF1020C08BF58
:1021F0004CEBD37C04E04FF0080C01E04FEAD37CB9
:102200000CEB4C0526FA05F606F00706B6F1040CB1
:1022100006D20EEB860CBDE870404CF0010C604716
:10222000DFE80CF0090B02024FF000414FF0000014
:10223000A1F5002170BD19461046012851EB01049B
:1022400018BFD4F5001484BF002001F0004170BD18
:102250000808A0F500114FEA3101704791EA030F19
:1022600010B581F000413FF5FBAC83F0004300F076
:10227000EFB800002DE9F04101F5801CBCF5001F0E
:10228000C0F2C3804FEA115C21EA0C510CF1FD0C45
:1022900041F480115FEA5C0C0CF5C07C01D3400076
:1022A00049413DA4890241EA905187028E0E0A0CF1
:1022B000A45D04FB04F602FB06F6C6F14046A4FB4F
:1022C0000662F60D46EA422606FB06F4A4FB01234D
:1022D0005242C3F1404338BF5B1EA6FB02420024BA
:1022E000E6FB0324D20B42EA4446A6FB0623A1FBED
:1022F00002E2A3FB07E4A4184FF0000252F100022F
:10230000E3FB01426442C2F1404E38BFAEF1010E20
:10231000A6FB04234FF00002E6FB0E32A2FB0346AD
:102320004FF00004B61954F10004E2FB0264A1FB73
:1023300006E6A4FB07E816EB08064FF0000858F184
:102340000008E4FB01687642C8F1405838BFA8F1A4
:102350000108A2FB06E4A3FB08E52D194FF00004D9
:1023600054F10004E2FB0854A1FB05E6A7FB04E8D6
:1023700018EB06084FF0000656F10006E1FB048654
:1023800018F1200556F10006A809A8F11B08B109AB
:1023900008F03F08B8F10A0F40EA86601CD901EB4B
:1023A0000C51BDE8F08100BFFCF5EEE8E2DDD8D3CA
:1023B000CFCBC7C3C0BDB9B6B4B1AEACA9A7A5A3B6
:1023C000A19F9D9B9A9896959392908F8D8C8B89C7
:1023D0008887868584838281A0FB006800FB01F2E8
:1023E00008EB4208B8EB872807D5341858EB0104EE
:1023F000D5D5401C51F10001D1E7341A78EB010426
:10240000CDD4401E71F10001C9E75FEA4C0C5FEAD0
:102410009C5C0DD105D34FF0000001F00041BDE8F8
:10242000F081BDE8F04170B5FFF7C4FE6DDBFFBE83
:10243000BDE8F0414FF00000004970470000F87F10
:1024400010B591EA030F48BF83F000433FF508AC95
:10245000841A71EB030C07D212198CF0004C43EB79
:102460000C03001B61EB0C01DFF8A4E14FEA1154EF
:10247000A4EB135C1EEA430F18BF9EEA445F00F012
:10248000B08023EA6E03524221EA0451C3EB6E038B
:1024900038BF5B1EDCF1200E25D322FA0CFE10EBB8
:1024A0000E0043FA0CFE41EB0E01CCF1200E03FAB4
:1024B0000EFE10EB0E0051F10001CCF1200E29D4DC
:1024C00012FA0EF201EB0451BDE8104058BF7047FC
:1024D000401C1CBFB2F1004F704700280CBF491CC4
:1024E00020F00100704712EB020E43EB030218BF0D
:1024F0004FF0010E4EEA4202ACF1200CDCF11E0E50
:1025000054D943FA0CFE10EB0E0051F1FF31CCF11F
:102510001E0ED5D50EF1010E12FA0EFE404141EB12
:10252000010101EB445C5FEA5C5C10D910EBDE70EA
:1025300001EB045138BFBEF1004FBDE8104018BF99
:10254000704700280CBF491C20F00100704730D2B2
:102550004FEAD42C11F5001124F400641BD0B1FA19
:1025600081F20B3AA41AA41ED2F12003914030FA52
:1025700003F31943904001EBCC71002C01EB0451A3
:10258000BDE81040A8BF704701F1C0414FF0000006
:1025900001F000417047B0FA80F310FA03F100D166
:1025A00010BDE41A173C4805C90AE4E701EB0451E1
:1025B00010BD491001EB0451BDE810404FEA300056
:1025C00002E04FF0000170474A0008BF0042F8D017
:1025D000B2F5001F28BF704701F000414FF0000026
:1025E00070479EEA445F07D011EA5E0FBDE81040D5
:1025F00004BF002100207047BDE8104070B5FFF710
:10260000D9FD00BF40DFF63E83F000411046704721
:102610000000E0FF43004FEAD30C4FEA3C0C43407C
:102620001FBF40070CF1605113F0FE4F70471CF0C4
:10263000006F03D100200CF0004170470CF0004304
:1026400043EA507010B540EACC0000F0FDF800BF3E
:10265000000000924FEA0001FFF7FABD4FF0004181
:102660004FF00000A1F500217047000090EA010F33
:1026700048BF81F0004100F16A81421A3CBF801AD4
:1026800089184FEAD0524FF07F4C1CEA410FA2EB61
:10269000D15318BF9CEA026F00F03B804FF0004C12
:1026A0004CEA00204CEA012121FA03FC10EB0C0C4F
:1026B0001ED202F1FF325FEA1C2040EBC25038BF4D
:1026C00070471CF07F0F4FEA400C18BFBCF17F4FE2
:1026D00038BF7047C3F12003994008BF20F00100C4
:1026E000BCF17F4F38BF7047A0F1C04000F0F2B896
:1026F0004FEA3C00000A40EBC25028BF1CF0FF0F1D
:102700004FEA400CE6D018BFBCF17F4F38BF70478E
:10271000EAE79CEA026F05D010EA5C0F08BF00F000
:102720000040704710B500F08FF800BF64FBBE3E5C
:10273000401058BFC0F14040491058BFC1F140415E
:102740008142EFF300807047C10DD1F19E0206DB9C
:102750004FEA002343F0004323FA02F0704700429F
:1027600007D54FEA4001B1F1FE4F02D24FF0000011
:10277000704710B500F068F8499224800020704737
:102780006FEA20007047000010F0004148BF40424F
:10279000B0FA80F310FA03F2C3F19D030BD051EAB3
:1027A000C35101EB1220530638BF704700F10100FE
:1027B00008BF20F001007047B0FA80F310FA03F26E
:1027C000C3F19D030AD0D90501EB1220530638BF8F
:1027D000704700F1010008BF20F0010070470000C1
:1027E00050EA010C00F113801CF5000F58BFBCF536
:1027F000000F01D48842704707D710F5000F58BF6B
:1028000011F5000F15D488427047894270471CF5B6
:10281000000F04D5BCF5000FF7D5814270474FF08B
:10282000807C1CEB400F38BF1CEB410F01D2814272
:10283000704710B500F008F8922449004FF000509E
:102840004FF08051FFF774BF0EF1020E2EF0030E11
:102850005EF8044B244204D44FEA4102B2F17F4FA8
:1028600011D84FEA4003B3F17F4F0CD80ED14FEA95
:10287000D07CB2F17F4F0CEB4C0C0CF1020C08BF7A
:102880004CEBD17C04E04FF0080C01E04FEAD17C26
:102890000CEB4C0324FA03F404F00704B4F1040C29
:1028A00006D20EEB840CBDE810404CF0010C6047E2
:1028B000DFE80CF0070802024FF00040A0F58000AE
:1028C00010BD0846420018BFD2F1807288BF00F0E8
:1028D000004010BDFF2141EAD050C005704751EAC9
:1028E000000C00F113801CF5000F58BFBCF5000F61
:1028F00001D48142704707D711F5000F58BF10F57A
:10290000000F15D481427047894270471CF5000FB3
:1029100004D5BCF5000FF7D5884270474FF0807C96
:102920001CEB410F38BF1CEB400F01D288427047AF
:1029300080EA010081EA000180EA0100FFF779BF27
:1029400090EA010F48BF81F000413FF596AE421A70
:1029500004D882F00042A0EB020011444FEAD052AA
:102960004FF07F4C1CEA410FA2EBD15318BF9CEAF9
:10297000026F4AD04FF0004C4CEA00204CEA012193
:1029800021FA03FCB0EB0C0C0FD412F0FE0F36D082
:102990005FEA4C001DD5001240EBC25038BF7047B3
:1029A0001CF03F0F18BF70470BE0A2F101025FEA75
:1029B0001C2040EBC25038BF70471CF07F0F18BF7F
:1029C0007047C3F12003994014BF401E20F001005E
:1029D000704780084FEA122308BF7047B0FA80FCA6
:1029E000A2EB0C02CCF1280C60FA0CF093EA122F47
:1029F00004BF00EBC25070474FEAC3707047130A20
:102A00005FEADC1008BF7047F6E79CEA026F04D06B
:102A100010EA5C0F08BF0020704710B5FFF714FFE5
:102A200040DFF63E81F0004070470CF00F03092BA9
:102A300008BF082000F059800A2B0BD0082B18BFC4
:102A4000704708BF1CF0400F0AD04FF000004FF055
:102A5000000170471CF0400F18BF4FF00040704756
:102A60001CF0100F08D020F0704300F07F4242EAC3
:102A7000D3014FEA4370704700F0604021F07F427D
:102A800042EA000201F07F4040EA727070474FF066
:102A9000FF0C4CF4E06C1CEA11531CBF9CEA030CC5
:102AA0009445C2BFDA4201EB02517047002B0DD0B2
:102AB000BCF1000F0FD0002A01F00041A4BF41F08B
:102AC000E04141F07F614FF00000704701F00041AC
:102AD0004FF00000704750EA01334FF09B0C18BFD5
:102AE0004CF0806C7FF45CA970471CF4801F11D0FF
:102AF0001CF4E02F03D06FEACC31490070474FF04F
:102B00004050EFF3008222F0704242EA000282F36A
:102B1000008870474FF00000704700000000000080
:102B20004FBB610567ACDD3F182D4454FB21E93FE5
:102B30009BF681D20B73EF3F182D4454FB21F93FD4
:102B4000E2652F227F2B7A3C075C143326A6813C5A
:102B5000BDCBF07A8807703C075C143326A6913C05
:102B6000C4EB98999999C9BF711623FEC671BCBF71
:102B70006D9A74AFF2B0B3BF9AFDDE522DDEADBFD9
:102B80002F6C6A2C44B4A2BF0D5555555555D53FF1
:102B9000FF8300922449C23F6E204CC5CD45B73F0C
:102BA000513DD0A0660DB13FEB0D76244B7BA93F84
:102BB00011DA22E33AAD903FD82B00080000002044
:102BC000D000000028010008A82C0008D000002038
:102BD000880600004401000800000000000000001A
:102BE00000000000000000000000000000000000E5
:102BF00000000000000000000000000000007A4417
:102C000000000000000000000000000000000000C4
:102C100000000000000000000000000000000000B4
:102C200000000000000000000000000000000000A4
:102C30000000000000000000000000000000000094
:102C40000000000000000000000000000000000084
:102C50000000000000000000000000000000000074
:102C60000000000000000000000000000000000064
:102C70000000000000000000000000000000000054
:102C80000001020304010203040607080902040606
:102C90000800000000A24A0400000000000000003C
:082CA000010203040607080904
:040000050800018965
:00000001FF
